:02000004000AF0
:10E0000000400220ADF80A00BDF80A00BFF80A007F
:10E01000C1F80A00C1F80A00C1F80A0000000000B7
:10E02000000000000000000000000000C1F80A002D
:10E03000C1F80A0000000000C1F80A00C1F80A0097
:10E04000C1F80A00C1F80A00C1F80A00C1F80A00C4
:10E05000C1F80A00C1F80A00C1F80A00C1F80A00B4
:10E06000C1F80A00C1F80A00C1F80A00C1F80A00A4
:10E07000C1F80A00C1F80A00C1F80A00C1F80A0094
:10E08000C1F80A00C1F80A00C1F80A00C1F80A0084
:10E09000C1F80A00C1F80A00C1F80A00C1F80A0074
:10E0A000C1F80A00C1F80A00C1F80A00C1F80A0064
:10E0B000C1F80A00C1F80A00C1F80A00C1F80A0054
:10E0C000C1F80A00C1F80A00C1F80A00C1F80A0044
:10E0D000C1F80A00C1F80A002DE9F8438146DFF8CB
:10E0E00074050C469046006804EB0801491E18F0C0
:10E0F000030FC0B0B1FBF0F130D1B8FBF0F7B9427B
:10E100002CD359292AD2B4FBF0F1FFB2CDB200FBD7
:10E11000114008B16D1CEDB23E4604E000F017FB63
:10E12000FF281BD0761CF0B2E9198842F6DB4FF4C9
:10E13000807702E0B944B844E41B94B1BC4238BFD4
:10E14000A7B26A463946484600F0E7FB30B13A4686
:10E150006946404600F0CDFA0028EBD04FF0FF3082
:10E1600000E0002041B0BDE8F083FEB504460D4656
:10E170004FF0FF362C276A460C21381900F0CDFBF2
:10E1800050B19DF80000012805D0019820B1C719B1
:10E19000AF42F0D300E0029E3046FEBD2DE9F843C9
:10E1A000C0B04FF0FF3400298DF8014055D08046B3
:10E1B00010008DF8022001EB080408F12C074FF045
:10E1C000FF092CD0DFF89424914246D200268DF826
:10E1D000009001966A460121384600F09EFB9DF8AA
:10E1E000000003280FD03F1D381D844209D301AA27
:10E1F0000421384600F091FB0198001FC719BC426A
:10E20000E8D2354628E0029602AA042107F115005B
:10E2100000F083FB02980028F3D00126F1E7DFF835
:10E220004024914219D200258DF8009001950122D9
:10E23000694600F024FA9DF80000032810D03F1D25
:10E24000381D844208D3042201A900F018FA01986D
:10E25000001FC719BC42EAD275B94FF0FF304BE03E
:10E260000295042202A907F1150000F012FA0298A3
:10E270000028F1D00125EFE708F12F00039004AE4C
:10E280009DF80200DFF8DC73DFF8CC53DFF8D843E9
:10E2900000283ED004AA3021404600F03EFB96F80C
:10E2A0002F00FC2826D04FF4A051384600F0CCFBBC
:10E2B00007F5A0528121404600F02FFB41F2394082
:10E2C000381800F0FDFB010010D1012300F049F8DF
:10E2D00004001CBF207800280FD0C02110A800F037
:10E2E000B3FB00F044F8A52808BF0020040006D1C5
:10E2F0008DF801409DF9010034E7FF20F6E7FC208E
:10E3000086F82F000DF13F020398012100F029FB50
:10E31000EEE7302204A9404600F0BBF996F82F0042
:10E32000FC28E7D0002300F01CF804001CBF207874
:10E3300000280BD08122414607F5A05000F0A8FC30
:10E3400000F015F8A52808BF0024D1D0FC2086F8DD
:10E350002F00012203980DF13F0100F0CAF9FF24BC
:10E36000C6E74FF480522146404600F026BC10A874
:10E37000029041F2614101977918009141F24142C6
:10E38000BB18224605F12C0105F10C0000F09FBBE3
:10E390002DE9F0479AB0002080F31488B349AD4CC2
:10E3A0000868DFF8B892800200F4705020600027FF
:10E3B00000F062FA002840F08F80A4E000F058F9E5
:10E3C00006F1110000F0CDFA7FE07FB2002F00F1DE
:10E3D00098803D0302AA3421284600F09EFA9DF859
:10E3E0001800FE2801BF9DF8140003289DF81500B1
:10E3F000012870D19DF81900FC286CD00D9E089959
:10E400008819484567D201223046FFF7C7FE9DF8BC
:10E410001810FE2908BF00285DD1FC208DF80400EB
:10E420000FAA2C21304600F078FA15993046FFF7F4
:10E430009CFE804618F1010F4DD01698404522BF32
:10E44000159901EB0802824245D342463046FFF758
:10E4500043FE824601AA012105F1100000F081FA75
:10E46000BAF1000F37D1002000904FEA5835159BC4
:10E4700021680022E8B200F021FC119988429DD168
:10E48000FE208DF8040001AA78030121113000F06C
:10E4900068FA012301AA1121E8B200F03FF90899B6
:10E4A00000224046FFF77AFE01469DF84E00012803
:10E4B00018BF002803D0032818BF072805D121B9A9
:10E4C00000F015FA169800F0AFFC00F0D1F806F154
:10E4D000100000F046FA7F1C38060FAA0821000B36
:10E4E00000F01BFA0FA800F0C5FC01283FF46DAF47
:10E4F0000FA800F0A5FC012803D07F1CF8B2572814
:10E50000EADD00F0F4F90025EEB27703082200F00E
:10E51000B5F802A800F094FC01284CD12C2200F0A0
:10E52000ADF89DF81A0001281CBF0328072842D126
:10E530000899002918BF11F1010F3CD048488142C9
:10E5400039D20998B84224BFCA19824233D39DF800
:10E550001400032804BF9DF8150001282BD19DF855
:10E560001900FC2827D0FF281BD1FE208DF80400BD
:10E5700000220B460092E8B2216800F09FFB824621
:10E58000049882451CBFFC218DF80410012201A9CA
:10E5900007F1110000F0ADF8049882450BD10899FD
:10E5A00001E0FE2807D100223846FFF7F7FD10B939
:10E5B000099800F039FC6D1C572EA5DB00F05CF9C2
:10E5C00000283FD001AA3421002000F0A6F99DF8D0
:10E5D0001500FE2836D10C9E07998819484531D27E
:10E5E0003046FFF7C2FD054615F1010F2AD0089805
:10E5F000A84222BF07994A19824223D32A463046AD
:10E60000FFF76AFDE0B900906E0B079B21680022BE
:10E61000F0B200F053FB0399884211D1FE208DF82F
:10E62000000001236A461121F0B200F077F8079943
:10E6300000222846FFF7B2FD10B9089800F0F4FB5D
:10E6400000F055F900F00BFC00201AB0BDE8F0878F
:10E65000000000004825002054FF0A0001001000BF
:10E6600001000B00181000204C250020302403402E
:10E67000FC208DF8040001AA0121704702A9384648
:10E6800000F007B880B500F011FC00B10120C0B265
:10E6900002BD70B504460D46164600F003FC411E4F
:10E6A0008941C90F03E014F8010B05F8010B30464E
:10E6B000461E0028F7D109B1FFF7E4FF002070BD26
:10E6C00070B515461E4601EB403400F0EBFB401ED2
:10E6D0008041C00F03E014F8011B05F8011B31460F
:10E6E0004E1E89B20029F6D108B1FFF7CBFF0020FA
:10E6F00070BDF8B504460D46164600F03AF80746D8
:10E7000032462146284600F0DEFB0446384600F03B
:10E7100047F80CB90020F2BDFF20F2BD2DE9F04111
:10E7200004460D4616461F4600F023F880463A463A
:10E7300005EB4431304600F0C6FB0446404600F08D
:10E740002FF8002C0CBF0020FF20BDE8F08138B569
:10E75000044600F00EF80546600300F0ABFB0446EB
:10E76000284600F01DF8E4B20CB9002032BDFF20AD
:10E7700032BD70B5104C114D21688A68284690470B
:10E780000646C0B250B12268536800212846984717
:10E7900021688A68284690470028F9D1F0B270BDF8
:10E7A000002800D1704710B5034A044813685C681C
:10E7B0000121A04710BD0000D80100100040034017
:10E7C000874900E0874980200860704738B5FFF727
:10E7D000F7FF04218BA000F083FB10B1FFF7F2FFDD
:10E7E00008E0814D0221284600F08DFB0446FFF72A
:10E7F000E9FF0CB1002032BD7C4900E00831086817
:10E8000040B12A780879824202BF6A784879824208
:10E81000F4D10120696032BD38B5FFF7D1FF00F0B7
:10E8200092FBFFF7CFFF6F4C77A58020206101217D
:10E83000284600F055FB0121684600F064FB80216A
:10E84000216028B99DF80000C107EED4002032BD38
:10E850006FF0010032BD000010B5FFF7B1FF0121DC
:10E860006AA000F03DFB0446FFF7ACFF14B16FF067
:10E87000020010BD002010BD38B50E215C48594D76
:10E8800000F06CFB5B490A68D36B07209847802037
:10E890002860AB218DF80210286101210DF10200E2
:10E8A00000F01EFB441EA44180202860E40F2000DD
:10E8B00013D04FF4C871ADF80010BDF8000004E0AB
:10E8C000BDF80010481EADF80000BDF8000000289B
:10E8D000F6D1FFF7A1FF00B10024200003D0FFF71D
:10E8E00075FF044601E000F002F8204632BD1CB579
:10E8F000B9203C4C8DF8000080222261012168463D
:10E9000000F0EEFA802121600A24FFF75FFF08B1D2
:10E91000641EFAD100F073FB13BD7CB506460C46AD
:10E920001546FFF779FF80B903218DF800108DF8A7
:10E930000360320C310A2B4E8DF801208DF8021045
:10E9400000F05AF818B180203060002076BD2146D2
:10E95000284600F0D8FA8021401E31608041C00F67
:10E9600076BD2DE9FC4107460C4690461D4D26E03C
:10E97000FFF772FF40BB07F0FF00C0F5807026462E
:10E98000844288BF064602208DF80000390C8DF8BD
:10E990000110380A8DF8020080218DF8037029617A
:10E9A0006846042100F09CFAF719A41B78B9314697
:10E9B000404600F095FA68B98020B044286064B100
:10E9C000FFF72AFF0028D3D00020BDE8F681802081
:10E9D0002860F9E780212960F6E70120F5E70000CB
:10E9E000A02002409020024038250020E00F0020A7
:10E9F00000093D00B4010010802030610421684608
:10EA000000F06EBA90FFFF0005000000060030B471
:10EA1000002513E050F8042BD30744BFA9F10103EC
:10EA20009A18091F042942F8045BFAD213468C078E
:10EA300044BF15809B1CC90748BF1D7050F8041BBC
:10EA40000029E7D130BC7047002200F009BB00006C
:10EA5000DFF800F005C80010002253420344DB7FBA
:10EA60008B54521C1F2AF8DD704710B5002302E0BA
:10EA7000CC5CC4545B1C9342FAD310BD30B5002368
:10EA800000E05B1C934205DAC45CCD5CAC42F8D07C
:10EA9000012030BD002030BD2021017040F24C42E9
:10EAA000428003236A496B4A8160C26003716A49EC
:10EAB0006A4A016142616A496A4A8161C26170477A
:10EAC00080B508226849FFF7D9FFC0B202BD2DE921
:10EAD000F0478AB08246129E139C149D0F469046C2
:10EAE000994601A8FFF7D8FF29464046FFF7B4FF33
:10EAF00005F120015046FFF7AFFF05F14001384610
:10EB0000FFF7AAFF05F160014846FFF7A5FF05F1F1
:10EB1000800A51463046FFF79FFF0398534908602B
:10EB2000049853490860059852490860069852496C
:10EB300008600798514908600898514908609DF895
:10EB40000800504904F24C47087008224E493A60C8
:10EB50007A62BA64FA66C7F890200C60202205F148
:10EB60002001381DFFF781FF202205F1400107F148
:10EB70002800FFF77AFF2022294607F14C00FFF713
:10EB800074FF202205F1600107F17000FFF76DFFAF
:10EB90002022514607F19400FFF767FF07F190002C
:10EBA000009007F16C0307F1480207F12401384691
:10EBB000FFF74EFF0AB0BDE8F0872DE9F8431D00CE
:10EBC00080460E46914604D14146304600F060F83A
:10EBD00003E032464946FFF7A0FEB069B0B300F04B
:10EBE000BEFA042106F10C0000F038FB2F2106F1DB
:10EBF000120000F033FBA9F1810106F1810000F061
:10EC00002DFBB469C844A4EB09044F460EE032461C
:10EC100039464046FFF781FE3946304600F01EFB7C
:10EC2000E41BA1452CBF27464F46C8443CB1002DEC
:10EC3000EDD1BAB24146304600F02AF8ECE7134C69
:10EC4000204600F077FB00F0CFFA2046BDE8F283C3
:10EC5000D4570210F85702101C58021040580210E6
:10EC6000645802108858021058FF0A00380100202A
:10EC70003C01002040010020440100202C01002024
:10EC80003001002048010020340100200C25002024
:10EC900010B518B910BD93B2CC5CC45413465A1EBB
:10ECA0009BB2002BF7D110BD08214208C0071046C7
:10ECB00044BF594A5040491EF7D170472DE9F04FE3
:10ECC00087B01C0018BF14F1010F154605900ED037
:10ECD0009DF84020012A02D1504B9C4207D201915D
:10ECE0001100DFF83CA104D14E4A944208D3002021
:10ECF0008EE04FF4807352460021FFF7E1FC06E0FE
:10ED0000019941434FF480725046FFF7C1FF0198CB
:10ED1000059AADF80250641EB4FBF0F1019800FBB7
:10ED2000114405A8641C90F80080A4B25218029403
:10ED3000D2B2029902980492C91100EB11600299B3
:10ED40000012A1EB00214FF0FF34039006914FF425
:10ED5000807B01E09DF800800498404555DB8045AC
:10ED600006D103AA0698157828B16D1CEDB202E011
:10ED7000019D2D042D0E08F101004FF000098DF8C2
:10ED800000000BE0681E81455B46524612BF4046BC
:10ED900000219DF80000FFF793FCB146A945D9DAA0
:10EDA000681E814504BF0499884507D1069828B19B
:10EDB000029E0398A6EB0026B6B200E05E460598D8
:10EDC000804509BFB9F1000F0027BDF802700C376C
:10EDD00009E01AF80000604000F0FF00FFF764FF50
:10EDE00080EA14247F1CB8B2B042F2DB09F10106BC
:10EDF0009DF8400031020028C4D1019B5A4603FB14
:10EE000008115046FFF744FFC7E74FF0FF3060405E
:10EE100007B0BDE8F08F00002083B8ED01001000BE
:10EE20004C35002001000B0001B4001D0090684625
:10EE30000268D2F80020D0F800D0104701B0704727
:10EE400010B5072113A2435C545CA34205D1491EAF
:10EE500049B20029F7D5012010BD002010BD80B5B2
:10EE600000F020F8BDE808404FF0FF3200210020FC
:10EE700000F0F4BA10B5072108A2435C545CA34229
:10EE800005D1491E49B20029F7D5012010BD002047
:10EE900010BD000043433236783252314F41442096
:10EEA0004E564D31EFF3108072B67047EFF310807D
:10EEB00062B6704780B508490A6853699847074A9F
:10EEC0000021116002BD38B5034B1C68A569A84735
:10EED000024A0021116032BDA80100108404604282
:10EEE0007CB505460C00544E0AE0326815F8011B4B
:10EEF00053684FF08040984700F01FF89847641E11
:10EF0000F3D1002076BD7CB505460C464A4E06E09E
:10EF100000F013F89847009805F8010B641E54B1EF
:10EF20003268936800214FF0804098470028EFD165
:10EF30004FF0FF3076BD002076BD3268D368694659
:10EF40004FF0804070471CB53B4A13681C69694606
:10EF50004FF08040A0470028F6D113BD2DE9FC41B9
:10EF6000364E0D4671684A690446062090470620D1
:10EF700000F00BFB0128FAD17168314FCA69DFF844
:10EF8000C4804FF4A060904700F032F84FF48070D6
:10EF90007168CA69904700F02BF803212A4F38693D
:10EFA000000900013861F9610094082001900023F4
:10EFB00034692649D4F800C000224FF08040E04771
:10EFC00000954FF0FF333468656C0F220C214FF031
:10EFD0008040A847386840F0020038603269136901
:10EFE00069464FF0804098470028F7D1BDE8F3818B
:10EFF00001203860D8F800008007FBD5704770B555
:10F00000134C0F4D21680F4E0A6A4FF480709047E1
:10F0100000F020F84FF4A06021680A6A904700F0E1
:10F0200019F8062021688A699047062000F0ADFA99
:10F030000228FAD170BD0000C4010010B401001014
:10F04000282008602820084004000040006CDC02F2
:10F05000B80100100120286030688007FCD5704797
:10F0600000B500BF130096469446103928BFA0E8AB
:10F070000C50FAD85FEA417C28BF0CC048BF40F86A
:10F08000042BC90728BF20F8022B48BF00F8012B2A
:10F0900000BD000080B5FFF709FF02E080B5FFF773
:10F0A00001FF00B10120C0B202BDB0FBF1F0484346
:10F0B00070472DE9F843DFF86C53DFF86C63DFF835
:10F0C0006C73DFF86C83D8F800104A69DFF86403CA
:10F0D0009047BC68DFF860033860FFF7DFFFB07867
:10F0E000A8BB002C03D54FF0FF31716029E0AC685C
:10F0F0003CB3D5F80490402C18D340212046FFF7AC
:10F10000D4FFD8F800C004464846DCF80C902346EB
:10F11000082206F15001C847A8686968001BA8606A
:10F1200021446960F0682418F46010E022464946E2
:10F1300006F1100000F048FA3089241834810021CB
:10F14000A96000227270287808B1F2603281FFF75E
:10F15000A1FF70780028B6D17068BDE8F28338B599
:10F16000FFF79CFFB04C207820B1FFF793FF4FF0E2
:10F17000FF3032BD0120207000216170A170FFF7C7
:10F1800089FF00202081E060FFF788FFAB4CAC4D89
:10F1900001202070042000F0F8F901280AD0002096
:10F1A0002070042029684A699047042000F0EDF996
:10F1B0000128FAD12968CA694FF48060904729680C
:10F1C0004A6A4FF4806090472968CA6A4FF48060A9
:10F1D000904700F03BF800229A48016861600260A5
:10F1E000FFF758FF002032BD38B5FFF757FF8E4CB0
:10F1F000607808B100F0F7F80020904D2070696841
:10F2000090488F4C0160FFF745FFFFF747FF2878D4
:10F2100040B921688A6904209047042000F0B5F9BC
:10F220000228FAD121680A6A4FF480609047216869
:10F230008A6A4FF48060904721680A6B4FF48060BF
:10F24000904700F003F8BDE8314023E77E497F4A4C
:10F250000120086010688007FCD570472DE9F84F41
:10F260007B4D714EDFF8BC910C4629684A69824695
:10F270002720904700207060B07089F80000308926
:10F2800021188346402906EB0B0334D370B1CBF130
:10F29000400B5A4600F049F80020308106F1100872
:10F2A00040270AEB0B00A4EB0B0405E0A709BF0104
:10F2B000D0460AEB0700E41BC9F80400C9F808406F
:10F2C000FFF7ECFEF06800283B4607D06C6DE56860
:10F2D000082206F150014046A84706E06C6DA5687B
:10F2E000082206F150014046A847F0683F18F76031
:10F2F0000121717014E0224600F017F830892418BB
:10F3000034810021C9F80810FFF7C8FE0120707091
:10F31000012150480160426842F001024260C16030
:10F32000FFF7B8FEBDE8F14FC3E6514603F1100008
:10F3300000F04AB92DE9FC41454F3B4E39684A6916
:10F3400080462720904700207060B0700120354A29
:10F350001070FFF7A3FE01207070F36843B97C6D55
:10F36000328965680823414606F11000A84735E058
:10F37000308960B1082101910090C3187C6D256827
:10F3800006F15002414606F11000A84726E0DC00D5
:10F39000402106F11000FFF757FB00258020307454
:10F3A000CDE90045002042420DEB02033118DC7923
:10F3B00001F8484F6A44401CD3780B710428F2D3FB
:10F3C000202206F15001404600F0FEF87C6DE56811
:10F3D00040230822414606F11000A847FFF75AFED5
:10F3E000BDE8F34165E610B5FFF758FE0E4C6078B6
:10F3F00020B9FFF74FFE4FF0FF3010BD144A1649F9
:10F400000120086027201368196A8847002020819E
:10F41000E0606FF002010120A0706160FFF73AFE2A
:10F42000002010BD2C2500209C240020884702408D
:10F43000040200100100008003000080402500202D
:10F44000B801001034EF00E02820086028200840B0
:10F45000B001001080470240404702402DE9F047CC
:10F46000344D334F304C344E814628688A468107EC
:10F4700044BF3248E86032480021904601602720AE
:10F480003A6821688A699047316B2E4801403163A0
:10F490004FF48060B16F21F48071B16721680A6B0D
:10F4A000904721680A6B4FF48160904721680A6B8E
:10F4B0004FF4C060904724491A4A01200860C2F8FE
:10F4C00000A030602868810707D418F1010F06BF3B
:10F4D0004FF04040E860C5F80C803868F06980075C
:10F4E000FCD5072000F034F80228FAD1B9F1000F5A
:10F4F00012D1216A154D8A68284690470428F8D011
:10F50000012804D1226A53680321284698470748F6
:10F5100001688908890001602068816BBDE8F047B7
:10F52000084700008C210840B80100102422084040
:10F530002C200940100009400C200840FD0000402C
:10F540000C400940FFFFFEFE2820086000400340F9
:10F5500030B51C4B1A685B6D0021C50704D5D40774
:10F5600001D45B0700D50121830703D5540804F0BB
:10F5700001042143400703D5920802F00102114320
:10F5800009B1012030BD022030BD30B50D4B1A68E5
:10F590005B6D0121C50704D5D40702D45B0758BFB2
:10F5A0000021830703D5540804F0010421404007DB
:10F5B00003D5920802F00102114009B1012030BDCB
:10F5C000022030BD402108404AB1000011F8013B43
:10F5D000521E00F8013B1CBF11F8013BF8E77047D1
:10F5E00038B54348434C056815F1010F08BF0025A5
:10F5F00000F0BCF8404900200860206C816C88470E
:10F600003E4A106820B13E490868284600F02AF8B2
:10F610003C49002008603C493C480A686FF31B42A3
:10F6200002430A603A490868C0F30130012806D154
:10F630000A683848024042F400330B600A60012037
:10F64000354DE861142021680A6A90473348344AEE
:10F65000016841F4E021016001212960106800285F
:10F66000FCD131BDF8B504462E4841688A0705D45F
:10F6700001682D4A090C41F0F00111704FF0012191
:10F680002A4B2B4A2B4E2C4F196015888568316800
:10F690000A682846904705F04070B0F1807F04BFAB
:10F6A000022139703268536829462046984723481A
:10F6B000234A0068010B01F03F011170C10502D51A
:10F6C0004022FA7402E01F4A40211170800900F0C4
:10F6D00038001D4940F4605008802846326893681D
:10F6E0009847022000F04AF8184901200860F1BD4F
:10F6F0001C130050B00100108404604280012843B4
:10F70000800520438C210840482003400000390137
:10F7100028000940EFFFFCFC0000244300200940C2
:10F720000C006842AC4F00505662084004A40C40E4
:10F7300000A00C40F0010010096208400C140050B9
:10F740000EB00C402C6208406AB00C409404604239
:10F7500005490968C1F30F314BF677324FF0FF309E
:10F76000914208BF052070471813005080B5FFF77D
:10F77000EFFF052800D101BDFEE7000030B50A49C2
:10F780000A4A09E0CC5C0D5C094B2344AC422CBF17
:10F7900013F8013C5B78136013685468A342FCD1F2
:10F7A0008342EFD130BD00BFA0FF0A0000600C40D3
:10F7B000C4F80A0030B5016884684218416802EB59
:10F7C0005103C90703D54C4401E0491C05D19A42B5
:10F7D0000AD012F9011B12F8015B002904F8015B41
:10F7E000F3D4491EF7D5F2E70C3030BD10B5074908
:10F7F00079441831064C7C44163404E00A68081D2C
:10F80000114488470146A142F8D110BD2C000000E8
:10F81000480000004EF68851CEF20001086840F41E
:10F8200070000860BFF34F8FBFF36F8F4FF0007011
:10F83000E1EE100A70470000D7F1FFFF3415000019
:10F8400018100020000000006DFFFFFF7C0000008A
:10F8500058000000E00F00200120C046002801D021
:10F86000FFF7C4FFAFF300800020AFF30080FEF786
:10F870008FFD00F000F800F005B80000DFF800F0A0
:10F88000BD6D021007463846FFF7F8FFFBE70000A2
:10F890000548014603B4684680F30988AFF3008049
:10F8A000FFF7B8FFFFF7D8FFA5EDF5FE80B5FFF72E
:10F8B00097FEFFF7EDFF00F002F801BDFEE7FEE75F
:10F8C000FEE700000200010305000020009D14FC7B
:10F8D00000032000C215FC00032000EF14FC00030D
:10F8E00010009D13FC00031000C214FC0003100064
:04F8F000EF13F6001C
:10FF5400014C0000B0177D511DEC108BD851BCA290
:10FF6400ED3D9E19B733A52F33DA05404D13765076
:10FF74003D88DF5CD0E2F2583053C42AB92ABEEF80
:10FF8400665FECCF5616CC36EF2DC95E462B7C3B14
:10FF940009C19956D9AF958163237BE70102000318
:10FFA80000008001100080FFFDFF58003AFF3BFF72
:10FFB800FFFFFFFFFFFFFFFFFFFFFFFFFFFFFFFF49
:10FFC800FFFFFFFFFFFFFFFFFFFFFFFFFFFFFFFF39
:10FFD800FFFFFF00FFFFFFFF00FFFFFF00C5C5FF9A
:10FFE800000000FF00E00A00FFFFFFFFFFFFFFFF28
:08FFF800FFFFFFFFFFFFFFFF09
:04000005000AF89164
:00000001FF
